:040000008AEFFFF094
:020000040001F9
:10FF14000001AEEFFFF0A0ECFFF0CCECFFF094ECAE
:10FF2400FFF01200600E0E01D36F000ED56F000EAD
:10FF3400D76F030ED96F000ED86F1200000E0E019A
:10FF4400DC6F000EDD6F000EDE6F000EDF6F000E43
:10FF5400E06F000EE16F12008DECFFF08C8E060E48
:10FF6400026E130E016EAE0EE82EFED7012EFCD7E4
:10FF7400022EFAD78C9E060E026E130E016EAE0E82
:10FF8400E82EFED7012EFCD7022EFAD78E808E885B
:10FF94008E96E4D7000E866E000E856E000E826E7D
:10FFA400000E836E000E846E070E8B6E7F0E876EBE
:10FFB4008868E60E896E8A680F0121691C691469D4
:10FFC400070E296F0C69000E206F000E286F000EBB
:10FFD400136F000E0B6F000E1B6F000E276F000EC9
:10FFE4000A6F000E126F000E1A6F000E1F6F096960
:0CFFF400116919691E69070E266F1200C2
:020000040020DA
:10000000FFFFFFFFFFFFFFFFFFFFFFFFFFFFFFFF00
:10001000FFFFFFFFFFFFFFFFFFFFFFFFFFFFFFFFF0
:10002000FFFFFFFFFFFFFFFFFFFFFFFFFFFFFFFFE0
:10003000FFFFFFFFFFFFFFFFFFFFFFFFFFFFFFFFD0
:10004000FFFFFFFFFFFFFFFFFFFFFFFFFFFFFFFFC0
:10005000FFFFFFFFFFFFFFFFFFFFFFFFFFFFFFFFB0
:10006000FFFFFFFFFFFFFFFFFFFFFFFFFFFFFFFFA0
:10007000FFFFFFFFFFFFFFFFFFFFFFFFFFFFFFFF90
:10008000FFFFFFFFFFFFFFFFFFFFFFFFFFFFFFFF80
:10009000FFFFFFFFFFFFFFFFFFFFFFFFFFFFFFFF70
:1000A000FFFFFFFFFFFFFFFFFFFFFFFFFFFFFFFF60
:1000B000FFFFFFFFFFFFFFFFFFFFFFFFFFFFFFFF50
:1000C000FFFFFFFFFFFFFFFFFFFFFFFFFFFFFFFF40
:1000D000FFFFFFFFFFFFFFFFFFFFFFFFFFFFFFFF30
:1000E000FFFFFFFFFFFFFFFFFFFFFFFFFFFFFFFF20
:1000F000FFFFFFFFFFFFFFFFFFFFFFFFFFFFFFFF10
:020000040030CA
:0C000000FCFFFFFF9FFFFFFFFFFFFFFF63
:00000001FF
