:0400000010EF0BF002
:100F000000601A00241A00161A00B21300B215006D
:100F1000561A00741600AA1A00A21A009A1A009211
:100F20001A008A1A00821A007A1A004C1A005E17F8
:100F300000008DB852D08DB012D0394A3A2A354AC5
:100F4000362A60C03BF0020E3D6EA00E3C6E920E43
:100F5000E82EFED73C2EFCD73D2EFAD700D08DB21E
:100F600012D0394A3A2A354A362A64C03BF0020E7A
:100F70003D6EA00E3C6E920EE82EFED73C2EFCD7A6
:100F80003D2EFAD700D08DB612D0394A3A2A354ACA
:100F9000362A68C03BF0020E3D6EA00E3C6E920EEB
:100FA000E82EFED73C2EFCD73D2EFAD700D08DB4CC
:100FB00012D0394A3A2A354A362A6CC03BF0020E22
:100FC0003D6EA00E3C6E920EE82EFED73C2EFCD756
:100FD0003D2EFAD700D0DF0E836E8DBA52D08DB081
:100FE00012D0394A3A2A354A362A61C03BF0020EFD
:100FF0003D6EA00E3C6E920EE82EFED73C2EFCD726
:101000003D2EFAD700D08DB212D0394A3A2A354A4D
:10101000362A65C03BF0020E3D6EA00E3C6E920E6D
:10102000E82EFED73C2EFCD73D2EFAD700D08DB649
:1010300012D0394A3A2A354A362A69C03BF0020EA4
:101040003D6EA00E3C6E920EE82EFED73C2EFCD7D5
:101050003D2EFAD700D08DB412D0394A3A2A354AFB
:10106000362A6DC03BF0020E3D6EA00E3C6E920E15
:10107000E82EFED73C2EFCD73D2EFAD700D07F0EAF
:10108000836E8DBE52D08DB012D0394A3A2A354A7D
:10109000362A62C03BF0020E3D6EA00E3C6E920EF0
:1010A000E82EFED73C2EFCD73D2EFAD700D08DB2CD
:1010B00012D0394A3A2A354A362A66C03BF0020E27
:1010C0003D6EA00E3C6E920EE82EFED73C2EFCD755
:1010D0003D2EFAD700D08DB612D0394A3A2A354A79
:1010E000362A6AC03BF0020E3D6EA00E3C6E920E98
:1010F000E82EFED73C2EFCD73D2EFAD700D08DB47B
:1011000012D0394A3A2A354A362A6EC03BF0020ECE
:101110003D6EA00E3C6E920EE82EFED73C2EFCD704
:101120003D2EFAD700D0BF0E836E8DBC12008DB05D
:1011300012D0394A3A2A354A362A63C03BF0020EA9
:101140003D6EA00E3C6E920EE82EFED73C2EFCD7D4
:101150003D2EFAD700D08DB212D0394A3A2A354AFC
:10116000362A67C03BF0020E3D6EA00E3C6E920E1A
:10117000E82EFED73C2EFCD73D2EFAD700D08DB6F8
:1011800012D0394A3A2A354A362A6BC03BF0020E51
:101190003D6EA00E3C6E920EE82EFED73C2EFCD784
:1011A0003D2EFAD700D08DB412D0394A3A2A354AAA
:1011B000362A6FC03BF0020E3D6EA00E3C6E920EC2
:1011C000E82EFED73C2EFCD73D2EFAD700D0EF0EEE
:1011D000836E1200130E0E01B26F0F0EF56F100E1C
:1011E000F66F140EB36FF1EC0CF02C0E69EC0CF0F2
:1011F000090E566E1E0E556EE40EE82EFED7552EC5
:10120000FCD7562EFAD700D02C0E69EC0CF0090E44
:10121000566E1E0E556EE40EE82EFED7552EFCD7E8
:10122000562EFAD700D02C0E69EC0CF0090E566E33
:101230001E0E556EE40EE82EFED7552EFCD7562E08
:10124000FAD700D02C0E69EC0CF0090E566E1E0E6B
:10125000556EE40EE82EFED7552EFCD7562EFAD743
:1012600000D00F0E69EC0CF0520E566E2B0E556E20
:10127000000EE82EFED7552EFCD7562EFAD700D0FA
:10128000010E69EC0CF012003C6E010E3D6E2AB4AA
:1012900044D03CC023F02A922A842A900E0E286E55
:1012A000010E226EF40E216E2A86E40E016E1A0ED5
:1012B000026E000E036E000E136E000E146EE40E2E
:1012C000046E1A0E056E000E066E000E156E000EF0
:1012D000166EE40E076E1A0E086E000E096E000EF2
:1012E000176E000E186EE40E0A6E1A0E0B6E000ECC
:1012F0000C6E000E196E000E1A6EE00E0D6E1A0EB8
:101300000E6E000E0F6E000E1B6E000E1C6E69EC52
:101310000DF0CDEC0CF0000E3D6E3D501200010EB4
:1013200069EC0CF0050E5A6E0F0E596EF10EE82E98
:10133000FED7592EFCD75A2EFAD700F05504561076
:10134000D8A41AD0000E2C6E000E2B6E2CBE06D028
:101350002C5012E1280E2B5CD8B00ED0200E54EC8D
:101360000CF0680E596EE40EE82EFED7592EFCD70D
:1013700000D02B4A2C2AEAD7000E2E6E000E2D6EBE
:101380000DD0200E54EC0CF0680E596EE40EE82ED1
:10139000FED7592EFCD700D02D4A2E2A57502D5C4F
:1013A0002E50800A596E5850800A5958D8B01200F1
:1013B000E8D720EC0DF00009D8A40AD026D055ECCF
:1013C0000DF0120051EC0DF0120049EC0DF012007E
:1013D00019C047F01AC048F020EE0AF001D80AD030
:1013E0000500FA6EDE50FD6EDE50FE6EDE50FF6EC2
:1013F000FA501200010AD8B4E8D7030AD8B4DFD7EC
:10140000010AD8B4DFD7070AE0D72A9024C0D9FF51
:1014100025C0DAFF244A252ADF5059EC0DF02606B4
:10142000D8A0270626502710D8A404D0000E4A6E54
:10143000060E03D0000E4A6E030E496E495012008C
:1014400019EC0DF0EAEC08F099EC07F0000E566E7E
:10145000010E556E000E586E080E576E8FEC09F097
:101460003B5054EC0CF0090E5C6E1E0E5B6EE40EED
:10147000E82EFED75B2EFCD75C2EFAD700D03BC0FF
:1014800033F0346A36BE09D0365004E1020E355CC2
:10149000D8A003D0530E3B6E13D03B505B6E5C6AFA
:1014A00033505B18D1E134505C18D8A4CDD7520E1C
:1014B0003B6ED00E5B6ECA0EE82EFED75B2EFCD7BD
:1014C000000E366E000E356EBFD7416E3C503D109B
:1014D0003E10D8B41BD04150030D010EF324D96E39
:1014E000000EF420DA6E3CC0DEFF3DC0DEFF3EC0E1
:1014F000DEFF4150020D130EF324D96E000EF420CE
:10150000DA6E3FC0DEFF40C0DDFF12004150030D28
:10151000010EF324D96E000EF420DA6EE40EDE6EB6
:101520001A0EDE6E000EDE6E4150020D130EF32415
:10153000D96E000EF420DA6E000EDE6E000EDD6E47
:101540001200000E866E000E856E000E826E000E7A
:10155000836E000E846E070E8B6E7F0E876E0F0EED
:10156000886E89688A68FE0E0F01216FE70E1C6F76
:10157000000E146F070E296F7F0E0C6F000E206F88
:10158000000E286F0F0E136F000E0B6F000E1B6FF7
:10159000000E276F000E0A6F000E126F000E1A6FFA
:1015A000000E1F6F0969116919691E69070E266F00
:1015B00012006CEC0DF024C0D9FF25C0DAFFDF6EFD
:1015C000244A252A2606D8A0270626502710D8B454
:1015D00004D060EC0DF0050E12002A8606D03DEC1A
:1015E0000DF0120041EC0DF0120013C047F014C0D2
:1015F00048F001D80AD00500FA6E0150FD6E025085
:10160000FE6E0350FF6EFA501200010AD8B4EAD7FA
:10161000030AD8B4E4D7010AD8B4E1D7070AE2D75D
:10162000F60EF66E190EF76E000EF86E00EE60F014
:1016300010EE10F00900F5CFEEFFE550E150FAE1B1
:10164000F80EF66E1A0EF76E000EF86E0900F5CF62
:101650005DF00900F5CF5EF00001736B726B716B8A
:10166000706B00EE01F03B0EEE6AE806FDE1000152
:1016700020EF0AF02A860AD04DEC0DF012005DEC46
:101680000DF0030E120049EC0DF0120013C047F0EC
:1016900014C048F001D80AD00500FA6E0150FD6E62
:1016A0000250FE6E0350FF6EFA501200010AD8B4C9
:1016B000EAD7030AD8B4E0D7010AD8B4DDD7070ABD
:1016C000D8B4DDD7E0D769EC0DF02AA007D020EC24
:1016D0000DF00009D8B402D00F0E286E2850030D6B
:1016E000010EF324F66E0F0EF420F76EF86A000E6A
:1016F000F82201D80DD00500FA6E0900F550FD6EF4
:101700000900F550FE6E0900F550FF6EFA50120008
:10171000286E1200516E515044EC09F00009D8B403
:10172000FAD74DC03CF04EC03DF04FC03EF050C027
:101730003FF0D9EC0CF0000E426E000E436E000E2E
:10174000446E000E456E000E466EA3EC0CF035ECB8
:101750000DF093EC0CF0E806D8A41200FAD72A900A
:10176000020E296E06D04DEC0DF0120049EC0DF082
:10177000120017C047F018C048F020EE07F001D85B
:101780000AD00500FA6EDE50FD6EDE50FE6EDE50B1
:10179000FF6EFA501200020AD8B4E5D7010AD8B495
:1017A000E2D7E4D720EE02F04750D9264850DA229B
:1017B000DECF3CF0DDCF3DF047C0D9FF48C0DAFFB7
:1017C000DECF3EF0DDCF3FF0D9EC0CF0000E426EE4
:1017D000000E436E000E446E000E456E000E466E07
:1017E000B1EC0CF0020E120047C03CF048C03DF0D6
:1017F000000E3F6E010E3E6ED9EC0CF0000E426EF4
:10180000000E436E000E446E000E456E000E466ED6
:10181000B1EC0CF0040E120047C03CF048C03DF0A3
:10182000000E3F6E020E3E6ED9EC0CF0000E426EC2
:10183000000E436E000E446E000E456E000E466EA6
:10184000B1EC0CF0020E120047C03CF048C03DF075
:10185000000E3F6E010E3E6ED9EC0CF0000E426E93
:10186000000E436E000E446E000E456E000E466E76
:10187000B1EC0CF0020E120047C03CF048C03DF045
:10188000000E3F6E020E3E6ED9EC0CF0000E426E62
:10189000000E436E000E446E000E456E000E466E46
:1018A000B1EC0CF0040E1200526E2FC053F030C099
:1018B00054F0400E536E52C054F0530E4D6E000E55
:1018C0004E6E000E506E020E4F6E3E0E8AEC0BF006
:1018D0001200526E31C053F032C054F0800E536E7D
:1018E00052C054F0530E4D6E000E4E6E000E506EF0
:1018F000020E4F6E3E0E8AEC0BF012004B6E010E84
:101900004C6E2AB20ED02A82000E4C6E4B50D8B4C8
:1019100002D0010E01D0020E286E78EC0DF003EC1F
:101920000DF04C501200010E3C6E2AB20AD02A94DF
:10193000236869EC0DF066EC0DF07AEC0DF029C02F
:101940003CF03C50120042C03CF043C03DF044C06B
:101950003EF045C03FF046C040F0020E65EC0AF094
:10196000120042C03CF043C03DF044C03EF045C0D0
:101970003FF046C040F0000E65EC0AF01200000E89
:101980000E01DC6F000EDD6F000EDE6F000EDF6FEC
:10199000000EE06F000EE16F120095BA1200000E0B
:1019A000946E080E956E000E966E9F0E926E958A3E
:1019B00012002AA612003CC024F03DC025F03EC013
:1019C00026F03FC027F02A961200600E0E01D36F5A
:1019D000000ED56F000ED76F080ED96F000ED86FAE
:1019E0001200000E946E080E956E000E966E9F0EFD
:1019F000926E959A1200313233413435364237387F
:101A000039432A30234404D039EC0DF063EC0BF059
:101A10002AA21200F9D72A802350232459EC0DF072
:101A2000030E12002A80D880233459EC0DF0050EE5
:101A30001200BFEC0CF0A1EC0AF0E5EC0CF0120087
:101A400096AC02D0010E1200000E12002A92000E77
:101A5000296E0E0E12002A906EEC0DF0040E12008C
:101A60002A92000E296E0E0E1200000E7EEC0CF073
:101A700012000E01C8B11200FCD763EC0DF0090E84
:101A8000120063EC0DF00A0E120060EC0DF0050E72
:101A9000120074EC0DF0000E120076EC0DF0010E49
:101AA000120076EC0DF0020E120076EC0DF0010E35
:101AB00012003C6E3CC091FF12000E01C881120062
:101AC000969A96881200968A968812000E01C09106
:101AD00012000E01C8911200915012009686120059
:101AE000050E1200010E120096841200968212005A
:0A1AF00096801200959A1200010082
:020000040020DA
:10000000FFFFFFFFFFFFFFFFFFFFFFFFFFFFFFFF00
:10001000FFFFFFFFFFFFFFFFFFFFFFFFFFFFFFFFF0
:10002000FFFFFFFFFFFFFFFFFFFFFFFFFFFFFFFFE0
:10003000FFFFFFFFFFFFFFFFFFFFFFFFFFFFFFFFD0
:10004000FFFFFFFFFFFFFFFFFFFFFFFFFFFFFFFFC0
:10005000FFFFFFFFFFFFFFFFFFFFFFFFFFFFFFFFB0
:10006000FFFFFFFFFFFFFFFFFFFFFFFFFFFFFFFFA0
:10007000FFFFFFFFFFFFFFFFFFFFFFFFFFFFFFFF90
:10008000FFFFFFFFFFFFFFFFFFFFFFFFFFFFFFFF80
:10009000FFFFFFFFFFFFFFFFFFFFFFFFFFFFFFFF70
:1000A000FFFFFFFFFFFFFFFFFFFFFFFFFFFFFFFF60
:1000B000FFFFFFFFFFFFFFFFFFFFFFFFFFFFFFFF50
:1000C000FFFFFFFFFFFFFFFFFFFFFFFFFFFFFFFF40
:1000D000FFFFFFFFFFFFFFFFFFFFFFFFFFFFFFFF30
:1000E000FFFFFFFFFFFFFFFFFFFFFFFFFFFFFFFF20
:1000F000FFFFFFFFFFFFFFFFFFFFFFFFFFFFFFFF10
:020000040030CA
:0C000000FCFFFFFF9FFFFFFFFFFFFFFF63
:00000001FF
